{
  "abi": [
    {
      "inputs": [
        {
          "internalType": "address",
          "name": "_axiomV2QueryAddress",
          "type": "address"
        },
        {
          "internalType": "uint64",
          "name": "_callbackSourceChainId",
          "type": "uint64"
        },
        {
          "internalType": "bytes32",
          "name": "_axiomCallbackQuerySchema",
          "type": "bytes32"
        }
      ],
      "stateMutability": "nonpayable",
      "type": "constructor"
    },
    {
      "anonymous": false,
      "inputs": [
        {
          "indexed": false,
          "internalType": "bytes32",
          "name": "axiomCallbackQuerySchema",
          "type": "bytes32"
        }
      ],
      "name": "AxiomCallbackQuerySchemaUpdated",
      "type": "event"
    },
    {
      "anonymous": false,
      "inputs": [
        {
          "indexed": true,
          "internalType": "uint64",
          "name": "sourceChainId",
          "type": "uint64"
        },
        {
          "indexed": false,
          "internalType": "address",
          "name": "callerAddr",
          "type": "address"
        },
        {
          "indexed": true,
          "internalType": "bytes32",
          "name": "querySchema",
          "type": "bytes32"
        },
        {
          "indexed": true,
          "internalType": "uint256",
          "name": "queryId",
          "type": "uint256"
        }
      ],
      "name": "AxiomV2Call",
      "type": "event"
    },
    {
      "anonymous": false,
      "inputs": [
        {
          "indexed": true,
          "internalType": "address",
          "name": "sender",
          "type": "address"
        },
        {
          "indexed": true,
          "internalType": "address",
          "name": "recipient",
          "type": "address"
        },
        {
          "indexed": false,
          "internalType": "uint256",
          "name": "timestamp",
          "type": "uint256"
        }
      ],
      "name": "HighFived",
      "type": "event"
    },
    {
      "anonymous": false,
      "inputs": [
        {
          "indexed": true,
          "internalType": "address",
          "name": "previousOwner",
          "type": "address"
        },
        {
          "indexed": true,
          "internalType": "address",
          "name": "newOwner",
          "type": "address"
        }
      ],
      "name": "OwnershipTransferred",
      "type": "event"
    },
    {
      "inputs": [],
      "name": "MINT_EVENT_SCHEMA",
      "outputs": [
        {
          "internalType": "bytes32",
          "name": "",
          "type": "bytes32"
        }
      ],
      "stateMutability": "view",
      "type": "function"
    },
    {
      "inputs": [],
      "name": "axiomCallbackQuerySchema",
      "outputs": [
        {
          "internalType": "bytes32",
          "name": "",
          "type": "bytes32"
        }
      ],
      "stateMutability": "view",
      "type": "function"
    },
    {
      "inputs": [
        {
          "internalType": "uint64",
          "name": "sourceChainId",
          "type": "uint64"
        },
        {
          "internalType": "address",
          "name": "callerAddr",
          "type": "address"
        },
        {
          "internalType": "bytes32",
          "name": "querySchema",
          "type": "bytes32"
        },
        {
          "internalType": "uint256",
          "name": "queryId",
          "type": "uint256"
        },
        {
          "internalType": "bytes32[]",
          "name": "axiomResults",
          "type": "bytes32[]"
        },
        {
          "internalType": "bytes",
          "name": "callbackExtraData",
          "type": "bytes"
        }
      ],
      "name": "axiomV2Callback",
      "outputs": [],
      "stateMutability": "nonpayable",
      "type": "function"
    },
    {
      "inputs": [],
      "name": "axiomV2QueryAddress",
      "outputs": [
        {
          "internalType": "address",
          "name": "",
          "type": "address"
        }
      ],
      "stateMutability": "view",
      "type": "function"
    },
    {
      "inputs": [],
      "name": "callbackSourceChainId",
      "outputs": [
        {
          "internalType": "uint64",
          "name": "",
          "type": "uint64"
        }
      ],
      "stateMutability": "view",
      "type": "function"
    },
    {
      "inputs": [],
      "name": "owner",
      "outputs": [
        {
          "internalType": "address",
          "name": "",
          "type": "address"
        }
      ],
      "stateMutability": "view",
      "type": "function"
    },
    {
      "inputs": [],
      "name": "renounceOwnership",
      "outputs": [],
      "stateMutability": "nonpayable",
      "type": "function"
    },
    {
      "inputs": [
        {
          "internalType": "address",
          "name": "newOwner",
          "type": "address"
        }
      ],
      "name": "transferOwnership",
      "outputs": [],
      "stateMutability": "nonpayable",
      "type": "function"
    },
    {
      "inputs": [
        {
          "internalType": "bytes32",
          "name": "_axiomCallbackQuerySchema",
          "type": "bytes32"
        }
      ],
      "name": "updateCallbackQuerySchema",
      "outputs": [],
      "stateMutability": "nonpayable",
      "type": "function"
    }
  ],
  "bytecode": {
    "object": "0x60a060405234801561001057600080fd5b50604051610a29380380610a2983398101604081905261002f916100c9565b6001600160a01b03831660805261004533610079565b600080546001600160401b03909316600160a01b02600160a01b600160e01b03199093169290921790915560015550610124565b600080546001600160a01b038381166001600160a01b0319831681178455604051919092169283917f8be0079c531659141344cd1fd0a4f28419497f9722a3daafe3b4186f6b6457e09190a35050565b6000806000606084860312156100de57600080fd5b83516001600160a01b03811681146100f557600080fd5b60208501519093506001600160401b038116811461011257600080fd5b80925050604084015190509250925092565b6080516108e46101456000396000818160eb015261020401526108e46000f3fe608060405234801561001057600080fd5b50600436106100935760003560e01c80638da5cb5b116100665780638da5cb5b1461012d578063acceabc81461013e578063cd1cd72514610173578063dc5cd53c1461017c578063f2fde38b1461018f57600080fd5b8063034606e0146100985780630a50ec5c146100ad5780632a75d3be146100e6578063715018a614610125575b600080fd5b6100ab6100a6366004610719565b6101a2565b005b6000546100c890600160a01b900467ffffffffffffffff1681565b60405167ffffffffffffffff90911681526020015b60405180910390f35b61010d7f000000000000000000000000000000000000000000000000000000000000000081565b6040516001600160a01b0390911681526020016100dd565b6100ab6101e5565b6000546001600160a01b031661010d565b6101657fddf252ad1be2c89b69c2b068fc378daa952ba7f163c4a11628f55a4df523b3ef81565b6040519081526020016100dd565b61016560015481565b6100ab61018a366004610797565b6101f9565b6100ab61019d366004610876565b610301565b6101aa61037a565b60018190556040518181527f215a17e0015e11cebc3087027513f0b70572c3b3341a76ef38fbcbbb8193c6ae9060200160405180910390a150565b6101ed61037a565b6101f760006103d4565b565b336001600160a01b037f000000000000000000000000000000000000000000000000000000000000000016146102905760405162461bcd60e51b815260206004820152603160248201527f4178696f6d5632436c69656e743a2063616c6c6572206d757374206265206178604482015270696f6d563251756572794164647265737360781b60648201526084015b60405180910390fd5b6040516001600160a01b03881681528590879067ffffffffffffffff8b16907fc6d3309bf887e48755c9a455e332b73641b6bf2fd018e3b608bf21676c4c0af59060200160405180910390a46102e7888888610424565b6102f788888888888888886104ee565b5050505050505050565b61030961037a565b6001600160a01b03811661036e5760405162461bcd60e51b815260206004820152602660248201527f4f776e61626c653a206e6577206f776e657220697320746865207a65726f206160448201526564647265737360d01b6064820152608401610287565b610377816103d4565b50565b6000546001600160a01b031633146101f75760405162461bcd60e51b815260206004820181905260248201527f4f776e61626c653a2063616c6c6572206973206e6f7420746865206f776e65726044820152606401610287565b600080546001600160a01b038381166001600160a01b0319831681178455604051919092169283917f8be0079c531659141344cd1fd0a4f28419497f9722a3daafe3b4186f6b6457e09190a35050565b60005467ffffffffffffffff848116600160a01b90920416146104985760405162461bcd60e51b815260206004820152602660248201527f4178696f6d56323a2063616c6c657220736f75726365436861696e4964206d696044820152650e6dac2e8c6d60d31b6064820152608401610287565b60015481146104e95760405162461bcd60e51b815260206004820152601e60248201527f4178696f6d56323a20717565727920736368656d61206d69736d6174636800006044820152606401610287565b505050565b60008484600081811061050357610503610898565b9050602002013590507fddf252ad1be2c89b69c2b068fc378daa952ba7f163c4a11628f55a4df523b3ef60001b81146105755760405162461bcd60e51b8152602060048201526014602482015273496e76616c6964206576656e7420736368656d6160601b6044820152606401610287565b60008585600181811061058a5761058a610898565b9050602002013560001c90506000868660028181106105ab576105ab610898565b9050602002013560001c9050806001600160a01b0316826001600160a01b0316146105d557600080fd5b6000878760038181106105ea576105ea610898565b60200291909101359150506001600160a01b0381161561060957600080fd5b60008888600481811061061e5761061e610898565b9050602002013560001c9050806001600160a01b03168c6001600160a01b03161461064857600080fd5b60008989600581811061065d5761065d610898565b60200291909101359150506001600160a01b0381161561067c57600080fd5b60008a8a600681811061069157610691610898565b9050602002013560001c90508d6001600160a01b0316816001600160a01b0316036106bb57600080fd5b806001600160a01b03168e6001600160a01b03167f52dac3b9cc2d51f1d84130a2e154e37ad2b216ad1b3f5c9c027873d6e5d5b15d4260405161070091815260200190565b60405180910390a3505050505050505050505050505050565b60006020828403121561072b57600080fd5b5035919050565b80356001600160a01b038116811461074957600080fd5b919050565b60008083601f84011261076057600080fd5b50813567ffffffffffffffff81111561077857600080fd5b60208301915083602082850101111561079057600080fd5b9250929050565b60008060008060008060008060c0898b0312156107b357600080fd5b883567ffffffffffffffff80821682146107cc57600080fd5b8199506107db60208c01610732565b985060408b0135975060608b0135965060808b01359150808211156107ff57600080fd5b818b0191508b601f83011261081357600080fd5b81358181111561082257600080fd5b8c60208260051b850101111561083757600080fd5b6020830196508095505060a08b013591508082111561085557600080fd5b506108628b828c0161074e565b999c989b5096995094979396929594505050565b60006020828403121561088857600080fd5b61089182610732565b9392505050565b634e487b7160e01b600052603260045260246000fdfea2646970667358221220440af91d0ab4a462c02e4424338df10a75d260f54dfbc2dee61fa9533ca3076064736f6c63430008130033",
    "linkReferences": {}
  },
  "methodIdentifiers": {
    "MINT_EVENT_SCHEMA()": "acceabc8",
    "axiomCallbackQuerySchema()": "cd1cd725",
    "axiomV2Callback(uint64,address,bytes32,uint256,bytes32[],bytes)": "dc5cd53c",
    "axiomV2QueryAddress()": "2a75d3be",
    "callbackSourceChainId()": "0a50ec5c",
    "owner()": "8da5cb5b",
    "renounceOwnership()": "715018a6",
    "transferOwnership(address)": "f2fde38b",
    "updateCallbackQuerySchema(bytes32)": "034606e0"
  },
  "id": 18
}